:020000040800F2
:100000007008002001010008A10A0008990A0008F0
:100010009D0A00089D080008FF120008000000006B
:10002000000000000000000000000000810D00083A
:10003000A108000800000000C10B0008950E000890
:100040001B0100081B0100081B0100081B01000820
:100050001B0100081B0100081B0100081B01000810
:100060001B0100081B0100081B0100081B01000800
:100070001B0100081B0100081B0100081B010008F0
:100080001B0100081B0100081B0100081B010008E0
:100090001B0100081B0100081B0100081B010008D0
:1000A0001B0100081B0100081B0100081B010008C0
:1000B0001B0100081B0100081B0100081B010008B0
:1000C0001B0100081B0100081B0100081B010008A0
:1000D0001B010008791000081B0100081B01000823
:1000E0001B0100081B0100081B010008DFF80CD0F1
:1000F00000F018F800480047791300087008002045
:100100000648804706480047FEE7FEE7FEE7FEE7B1
:10011000FEE7FEE7FEE7FEE7FEE7FEE7990E0008D2
:10012000ED000008064C074D06E0E06840F00103D2
:1001300094E8070098471034AC42F6D3FFF7DAFF93
:10014000F01E0008101F000810B56FF0040000F04A
:100150008DFE10BD70B504464FF4FA7094FBF0F0BC
:10016000C6B24FF4FA7094FBF0F100FB114085B277
:1001700005E04FF4FA7000F094FB701EC6B2002E3A
:10018000F7D115B1284600F08CFB70BD0146490639
:10019000084A926942F00102064B9A61064A526887
:1001A00022F0E062044B5A601A4652680A435A60D1
:1001B00070470000001002400000014008B5012116
:1001C000102000F00FFD4FF40050ADF8000010209B
:1001D0008DF8030003208DF802006946044800F002
:1001E00084FB4FF40051024800F054FC08BD0000AD
:1001F0000010014010B588B004460121084600F007
:10020000E1FC0121042000F0EDFC0220ADF81C000F
:1002100018208DF81F0003208DF81E0007A9214823
:1002200000F063FB4FF4C050ADF81C0010208DF8B7
:100230001F0003208DF81E0007A91A4800F055FB87
:1002400004B90124282C00DD282440F2CF70ADF839
:100250001400482090FBF4F0401E80B2ADF810006E
:100260000020ADF81600ADF8120004A94FF0804050
:1002700000F0B0FE6020ADF800000120ADF80200F3
:100280000020ADF8080069464FF0804000F040FEC5
:100290000821C80600F08EFE0121880700F02CFE20
:1002A00008B010BD0008014070B50546002D0BDDFB
:1002B0004FF40061174800F0EBFB4FF480511548F4
:1002C00000F0E8FBACB219E0002D0CDA4FF48051DD
:1002D000104800F0DDFB4FF400610E4800F0DAFB3F
:1002E000684284B20AE04FF480510A4800F0D0FB23
:1002F0004FF40061074800F0CBFB0024B4F5FA6F1F
:1003000001DD4FF4FA6421464FF0804000F05FFEBB
:1003100070BD00000008014070B500240CE000250D
:1003200006E00020074901EBC5010855681CC5B26D
:10033000802DF6DB601CC4B2082CF0DB00F038FA2C
:1003400070BD00006C0000202DE9F04104460D4610
:100350001646984600277B2C15DA3A2D13DA0FE063
:10036000F25D43462946204600F010F8A01DC4B2B5
:100370007A2C03DD002405F10C00C5B2781CC7B24D
:10038000F05D0028ECD1BDE8F08100002DE9F05FC0
:1003900080460C4615461E46A346A5F12000C5B270
:1003A000002735E005EB45001B4901EB800010F804
:1003B00007904FF0000A25E009F0800048B10EB91F
:1003C000012000E0002002462146404600F0ACFB40
:1003D00004E032462146404600F0A6FB4FEA496061
:1003E0004FEA1069601CC4B2A4EB0B000C2805D1C5
:1003F0005C4608F1010000F0FF0806E00AF1010088
:1004000000F0FF0ABAF1080FD6DB00BF781CC7B2B4
:100410000C2FC7DBBDE8F09F8C1400082DE9F041DC
:1004200005460E4614461F460A2C07DA04F1300032
:10043000C2B23B4631462846FFF7A8FFBDE8F0812F
:100440002DE9FE4F80468A4691461D46DDE90C7B2C
:10045000002D76DDE8190A2873DAB9F1000F02DA07
:10046000C9F1000600E04E460A20B6FBF0F100FBA1
:1004700011608DF801006420B6FBF0F100FB116003
:100480000A21B0FBF1F08DF802004FF47A70B6FB50
:10049000F0F100FB11606421B0FBF1F0C0B28DF807
:1004A000030042F21070B6FBF0F100FB11604FF454
:1004B0007A71B0FBF1F0C0B28DF804005948B6FB78
:1004C000F0F100FB116042F21071B0FBF1F0C0B22C
:1004D0008DF805005448B6FBF0F100FB116051495E
:1004E000B0FBF1F0C0B28DF806005048B6FBF0F159
:1004F00000FB11604C49B0FBF1F0C0B28DF8070071
:100500004B48B6FBF0F100FB11604849B0FBF1F03D
:10051000C0B28DF808004748B6FBF0F100FB11604F
:100520004349B0FBF1F0C0B28DF80900B9F1000FFA
:1005300041DA5B462D2251464046FFF727FF002453
:1005400012E037E0E919091B491E1DF8012004EBF0
:10055000440308F1060101EB4301C8B25B46514672
:10056000FFF75CFF601CC4B2681EA042EADC002FEB
:1005700056D005EB450108EB4101C8B25B462E227F
:100580005146FFF703FF002412E005EB450108EB9D
:100590004101891D04EB440301EB4301C8B2391B3F
:1005A0001DF801205B465146FFF738FF601CC4B2BE
:1005B000BC42EADB34E000240EE0E919091B1DF817
:1005C000012004EB440108EB4101C8B25B465146EF
:1005D000FFF724FF601CC4B2AC42EEDB07B305EBAF
:1005E000450108EB4101C8B25B462E225146FFF798
:1005F000CDFE002412E005EB450108EB4101891D09
:1006000004EB440301EB4301C8B2391B1DF8012080
:100610005B465146FFF702FF601CC4B2BC42EADBF6
:10062000BDE8FE8FA086010040420F008096980032
:1006300000E1F50500CA9A3B00B587B001210D2005
:1006400000F0D0FA0121084600F0DAF92820ADF8D0
:10065000040003208DF8060018208DF8070001A97A
:10066000504800F042F91020ADF804008DF8070062
:1006700001A94C4800F039F94FF40040ADF80400EE
:1006800010208DF8070001A9474800F02EF901213C
:10069000080300F0A7FA0020ADF808004FF48270BC
:1006A000ADF80A000020ADF80C000220ADF80E00F5
:1006B0000120ADF810004002ADF812000020ADF8A6
:1006C0001400ADF816000720ADF8180002A937484D
:1006D00000F038FB0121354800F01AFBFF2000F044
:1006E000FBFA10212F4800F0D5F96420FFF732FD06
:1006F00010212C4800F0CCF9C820FFF72BFD102169
:10070000284800F0C7F9AE2000F042FAD52000F0EA
:100710003FFA502000F03CFAA82000F039FA3F20C0
:1007200000F036FAD32000F033FA002000F030FA5F
:10073000402000F02DFA8D2000F02AFA142000F05D
:1007400027FA202000F024FA022000F021FAA1204C
:1007500000F01EFAC02000F01BFADA2000F018FAB0
:10076000122000F015FA812000F012FAEF2000F0BC
:100770000FFAD92000F00CFAF12000F009FADB2082
:1007800000F006FA302000F003FAA42000F000FA8E
:10079000A62000F0FDF9AF2000F0FAF9FFF7BCFD4C
:1007A00007B000BD000C01400008014000300140CE
:1007B00070B5002418E004F1B001C8B200F0E8F907
:1007C000002000F0E5F9102000F0E2F9002507E034
:1007D000074901EBC501085D00F0ECF9681CC5B2E2
:1007E000802DF5DB601CC4B2082CE4DB70BD00007A
:1007F0006C00002010B586B004460121042000F0F2
:10080000F1F90121880300F0EDF94FF40070ADF823
:10081000140018208DF8170003208DF8160005A984
:100820001C4800F062F84FF48060ADF8140004201A
:100830008DF8170005A9174800F057F8019400201B
:10084000ADF80800ADF80A00ADF80C00ADF81000E6
:100850000C20ADF80E0001A90F4800F0DBFC2520AC
:100860008DF8000002208DF8010001208DF80200B3
:100870008DF80300684600F015F9012240F2255179
:10088000054800F0A2FC0121034800F05BFC06B023
:1008900010BD0000000801400038014000BFFEE725
:1008A0007047014642F228324A434FF0E0235A6132
:1008B00000229A611A46126942F001021A6100BFD1
:1008C0004FF0E022106900F001021AB100F480320A
:1008D000002AF5D04FF0E022126922F001024FF019
:1008E000E0231A6100229A6170472DE9F041024627
:1008F00000250026002000230024002791F803C0D3
:100900000CF00F0591F803C00CF0100CBCF1000FB7
:1009100003D091F802C04CEA050591F800C0BCF183
:10092000000F31D0146800202BE04FF0010C0CFABE
:1009300000F3B1F800C00CEA03069E4220D1830008
:100940004FF00F0C0CFA03F7BC4305FA03FC4CEA1A
:10095000040491F803C0BCF1280F06D14FF0010C3C
:100960000CFA00FCC2F814C00AE091F803C0BCF114
:10097000480F05D14FF0010C0CFA00FCC2F810C072
:10098000401C0828D1D31460B1F800C0BCF1FF0F9F
:1009900034DD546800202EE000F1080C4FF001080F
:1009A00008FA0CF3B1F800C00CEA03069E4221D10C
:1009B00083004FF00F0C0CFA03F7BC4305FA03FC5D
:1009C0004CEA040491F803C0BCF1280F05D100F1F2
:1009D000080C08FA0CF8C2F8148091F803C0BCF1B6
:1009E000480F07D100F1080C4FF0010808FA0CF885
:1009F000C2F81080401C0828CED35460BDE8F081B6
:100A0000F0B50A46002300240021002500F000462E
:100A1000B6F1004F02D11D4EF16901E01B4E716825
:100A2000C0F3034583B200F44016B6F5401F08D169
:100A300021F07061154E766826F07066134F7E6067
:100A400012E000F48016B6F5801F06D1032606FAE0
:100A500005F4A14341F0706106E0460D360103FA4A
:100A600006F6B14341F0706122B1460D360103FA3A
:100A700006F6314300F00046B6F1004F02D1034EB6
:100A8000F16101E0014E7160F0BD00000000014025
:100A9000416170470161704700BFFEE700BFFEE79C
:100AA0007047000070B5002100230F22C47804B302
:100AB000154C246804F4E064C4F5E064210AC1F133
:100AC0000403CA40447804FA03F1847814402143B3
:100AD00009010E4C0678A155047804F01F05012485
:100AE000AC4005786D11AD0005F1E025C5F8004179
:100AF00009E0047804F01F050124AC40044D067899
:100B0000761145F8264070BD0CED00E000E400E0F1
:100B100080E100E002490143024A11607047000091
:100B20000000FA050CED00E0F0B5144600267F2821
:100B300001DC3F2900DDF0BD0B46CF1701EB5777F5
:100B4000FF10C7F10707FAB2CF1701EB5777FF1075
:100B5000A1EBC707FDB2C5F107070123BB40DEB219
:100B60004CB10A4B03EBC0039B5C3343074F07EBCD
:100B7000C007BB5408E0054B03EBC0039B5CB343C9
:100B8000024F07EBC007BB5400BFD4E76C00002046
:100B900010B504464FF400410548FFF779FF2046A1
:100BA00000F09AF84FF400410148FFF773FF10BDC1
:100BB0000008014010B50446204600F08DF810BD35
:100BC0007047000029B1064AD2690243044BDA613A
:100BD00004E0034AD2698243014BDA6170470000A6
:100BE0000010024029B1064A92690243044B9A61FF
:100BF00004E0034A92698243014B9A617047000006
:100C00000010024030B500210022002400232D4DA9
:100C10006D6805F00C0121B1042905D0082923D104
:100C200005E0294D056022E0274D05601FE0254DB8
:100C30006D6805F47012234D6D6805F4803402254B
:100C400005EB92421CB9214D554305600BE01D4D4B
:100C50006D6805F400351DB11C4D5543056002E07B
:100C6000194D5543056002E0174D056000BF00BFF8
:100C7000144D6D6805F0F0010909154D6B5C0568B0
:100C8000DD4045600F4D6D6805F4E061090A104DC7
:100C90006B5C4568DD4085600A4D6D6805F4605108
:100CA000C90A0B4D6B5C4568DD40C560054D6D683C
:100CB00005F44041890B074D6B5CC568B5FBF3F546
:100CC000056130BD0010024000127A0000093D00AD
:100CD000030000201300002010B5044600BF0221CD
:100CE0000A4800F021F80028F9D02146074800F012
:100CF00027F800BF0121054800F016F80028F9D0B8
:100D0000024800F01AF8C0B210BD000000300140E7
:100D100021B1028842F04002028004E002884FF6CE
:100D2000BF731A40028070470246002013890B40AF
:100D30000BB1012000E00020704701468889704710
:100D40008181704710B50022028802F441520B885D
:100D50004C8823438C882343CC8823430C8923432A
:100D60004C8923438C892343CC8923431A43028033
:100D7000838B4FF2FF74234083830B8A038210BD61
:100D8000704710B500F002F810BD00000CB500204F
:100D9000019000903348006840F480303149086089
:100DA00000BF3048006800F4003000900198401CFB
:100DB0000190009818B90198B0F5A06FF1D12948B9
:100DC000006800F4003010B10120009001E0002024
:100DD00000900098012843D12348006840F010009B
:100DE000214908600846006820F0030008600846B2
:100DF000006840F0020008601A48406819494860DD
:100E00000846406848600846406840F48060486092
:100E10000846406820F47C1048600846406840F46A
:100E2000E81048600846006840F08070086000BF25
:100E30000C48006800F000700028F9D009484068AC
:100E400020F00300074948600846406840F002006F
:100E5000486000BF0348406800F00C000828F9D142
:100E60000CBD00000010024000200240042808D100
:100E70004FF0E021096941F004014FF0E0221161D7
:100E800007E04FF0E021096921F004014FF0E02272
:100E9000116170477047000010B51348006840F0BA
:100EA00001001149086008464068104908400E4991
:100EB0004860084600680E4908400B49086008462B
:100EC000006820F4802008600846406820F4FE0096
:100ED00048604FF41F008860FFF753FF4FF0006039
:100EE0000449086010BD0000001002400000FFF837
:100EF000FFFFF6FE08ED00E021B1028842F001029A
:100F0000028004E002884FF6FE731A4002807047A8
:100F100070B5002400220023058C4FF6EF76354093
:100F20000584028C8388048B48F6FF752C404FF6AD
:100F3000FF452C400D884FF6FF7606EA05252C4329
:100F40004FF6DF752A400D8906EA05152A434D88BC
:100F500006EA05152A43154DA84202D0144DA842B1
:100F60001DD14FF67F752A404D894FF6FF7606EA70
:100F700005152A434FF6BF752A408D8806EA0515E8
:100F80002A434FF6FF352B404FF2FF752B408D89DA
:100F900006EA85052B43CD8906EA85052B43838028
:100FA0000483CD880587028470BD0000002C0140B9
:100FB000003401400A460021018B4FF2FF731940B3
:100FC0004FF6FF7303EA0223194301837047018739
:100FD00070470000002202881D4B98420ED01D4B26
:100FE00098420BD0B0F1804F08D01B4B984205D0EF
:100FF0001A4B984202D01A4B984204D14FF68F7385
:101000001A404B881A43174B984207D0164B984208
:1010100004D04FF6FF431A40CB881A4302808B88D6
:1010200083850B8803850A4B98420BD0094B984265
:1010300008D00E4B984205D00D4B984202D00D4B74
:10104000984201D10B7A0386012383827047000006
:10105000002C014000340140000400400008004022
:10106000000C00400010004000140040004001400F
:10107000004401400048014010B540F225512C4881
:1010800000F079F8002851D0294800F02FF9C4B2B7
:1010900028480078032823DA2648007838B9AA2C93
:1010A0003ED12548047001202249087038E02148CB
:1010B000007801280BD1552C05D11F48447002201F
:1010C0001C4908702CE000201A49087028E01A48D2
:1010D0008470032017490870601E184908701FE0CB
:1010E00015488078401E1349097888420EDD124861
:1010F0001049097844540F480078401C0D49087085
:101100000E48007820440D49087009E00B4800782B
:10111000844205D101200A49087000200549087061
:10112000012240F22551024800F04FF810BD0000A6
:1011300000380140010000201C00002002000020B7
:101140000000002021B1828942F40052828104E033
:1011500082894DF6FF731A40828170470246002053
:10116000B1F5007F00D100BF13880B400BB1012007
:1011700000E00020704770B50246002400230025DF
:10118000002040F66A16B14200D100BFC1F34215FB
:1011900001F01F03012606FA03F3012D02D19689FF
:1011A000334006E0022D02D1168A334001E0968AD0
:1011B00033400C12012606FA04F41688344013B1A9
:1011C0000CB1012000E0002070BDF0B50346002402
:1011D00000260025002040F66A17B94200D100BF62
:1011E0001846C1F3421401F01F06012707FA06F55D
:1011F000012C01D10C3004E0022C01D1103000E0B0
:1012000014301AB107682F43076002E00768AF4344
:101210000760F0BD2DE9F04786B005460E46002474
:10122000A24600BFA1460027B08900B100BF2F46EB
:101230002C8A4CF6FF700440F08804432C82AC8961
:101240004EF6F3100440B088318908437189084391
:101250000443AC81AC8A4FF6FF400440B08904439C
:10126000AC8201A8FFF7CEFC1F48874202D1DDF80F
:1012700010A001E0DDF80CA0A88900F4004040B106
:101280000AEBCA0000EB0A1031684900B0FBF1F824
:1012900007E00AEBCA0000EB0A1031688900B0FBD6
:1012A000F1F86420B8FBF0F004012009642101FB8F
:1012B0001089A88900F4004040B1322000EBC90039
:1012C000B0FBF1F000F00700044308E0322000EB2F
:1012D00009106421B0FBF1F000F00F0004432C81F1
:1012E00006B0BDE8F087000000380140014688885C
:1012F000C0F308007047C1F308028280704700BF46
:10130000FEE70000014A024900F013B85513000837
:101310001800002002E008C8121F08C1002AFAD1F4
:1013200070477047002001E001C1121F002AFBD165
:1013300070472DE9F04116460F460446002503E0AC
:101340003946B047641C6D1C20780028F8D1284627
:10135000BDE8F08170B504460D46E1B20548FFF7DF
:10136000CAFF00BF40210348FFF7F8FE0028F9D06C
:10137000204670BD003801401CB54FF4A060FFF757
:10138000C9FB4FF4E130FFF735FA39A0FFF7BAFF98
:101390000220FEF7FBFE0120FEF7F8FEFEF7D4FE6A
:1013A000FEF70CFFFFF748F9002333A21946184651
:1013B000FEF7CAFF002333A210211846FEF7C4FF30
:1013C000FFF7F6F90A20FEF715FF4FE0002417E0BB
:1013D00004EB8401890008B2FEF766FF6420FEF783
:1013E000B9FE00200090019004EB840082000523E8
:1013F00010211820FFF724F8FFF7DAF9601C84B2F7
:10140000642CE5DD4FF47A70FEF7A4FE0020FEF7B1
:101410004BFF40F6B830FEF79DFE002419E0614214
:1014200001EB8101890008B2FEF73EFF6420FEF760
:1014300091FE002000900190604200EB800082004D
:10144000052310211820FEF7FBFFFFF7B1F9601C00
:1014500084B2642CE3DD4FF47A70FEF77BFE00204B
:10146000FEF722FF40F6B830FEF774FEAEE700004C
:1014700020200D0A000000004D4F544F52205445CB
:10148000535400005350443A000000000000000094
:101490000000000000000000000000003F400000CD
:1014A000000000000000300040003000400000005C
:1014B00009000BC03D000BC03D00090018C02440CE
:1014C0007FE0224031800000180024C01B000D8006
:1014D0003240018003801C4027401C8007400040B0
:1014E000100060000000000000000000000000008C
:1014F00000001F80204040200000402020401F802E
:1015000000000000090006001F800600090000001E
:10151000040004003F80040004000000001000608C
:1015200000000000000000000400040004000400AB
:101530000400000000000040000000000000000067
:10154000002001C006003800400000001F8020403D
:10155000204020401F800000000010403FC000409D
:101560000000000018C02140224024401840000024
:1015700010802040244024401B80000002000D0009
:1015800011003FC0014000003C8024402440244022
:10159000238000001F80244024403440038000004A
:1015A0003000200027C03800200000001B802440AD
:1015B000244024401B8000001C0022C02240224006
:1015C0001F80000000000000084000000000000034
:1015D00000000000046000000000000000000400A3
:1015E0000A0011002080404009000900090009009C
:1015F0000900000000004040208011000A000400A3
:101600001800200023402400180000001F80204004
:10161000274029401F400000004007C039000F004C
:1016200001C0004020403FC0244024401B800000F7
:101630001F802040204020403080000020403FC0DC
:10164000204020401F80000020403FC024402E400A
:1016500030C0000020403FC024402E003000000079
:101660000F001080204022403380020020403FC005
:10167000040004003FC02040204020403FC02040E4
:10168000204000000060202020203FC020002000DB
:1016900020403FC024400B0030C0204020403FC0CD
:1016A00020400040004000C03FC03C0003C03C0060
:1016B0003FC0000020403FC00C4023003FC020003E
:1016C0001F802040204020401F80000020403FC05D
:1016D00024402400180000001F802140214020E009
:1016E0001FA0000020403FC02440260019C0004039
:1016F00018C02440244022403180000030002040A7
:101700003FC020403000000020003F8000400040EB
:101710003F80200020003E0001C00700380020006C
:10172000380007C03C0007C038000000204039C026
:10173000060039C0204000002000384007C0384073
:1017400020000000304021C02640384020C000006A
:10175000000000007FE040204020000000007000FA
:101760000C000380004000000000402040207FE08B
:1017700000000000000020004000200000000000E9
:1017800000100010001000100010001000000000F9
:1017900040000000000000000000028005400540FD
:1017A00003C0004020003FC004400440038000000C
:1017B0000000038004400440064000000000038055
:1017C000044024403FC00040000003800540054025
:1017D00003400000000004401FC0244024402000BB
:1017E000000002E0055005500650042020403FC094
:1017F0000440040003C000400000044027C0004033
:101800000000000000100010041027E0000000009D
:1018100020403FC00140070004C004402040204059
:101820003FC000400040000007C0040007C00400A3
:1018300003C00000044007C00440040003C000408F
:10184000000003800440044003800000041007F0FF
:101850000450044003800000000003800440045052
:1018600007F00010044007C002400400040000001C
:10187000000006400540054004C0000000000400D0
:101880001F80044000400000040007800040044026
:1018900007C000400400070004C0018006000400E7
:1018A000060001C0070001C006000000044006C099
:1018B000010006C0044000000410071004E001808D
:1018C000060004000000044005C00640044000007B
:1018D0000000000004007BE0402000000000000049
:1018E0000000FFF000000000000040207BE004004A
:1018F0000000000040008000400020002000400068
:1019000000000000000000000000000000000000D7
:101910000000000000001FCC000C000000000000D0
:101920000000080030006000080030006000000087
:10193000022003FC1E20022003FC1E2002200000C7
:1019400000000E1811043FFF10840C780000000006
:101950000F0010840F3800C007781884007800004A
:1019600000780F8410C411240E9800E4008400084D
:101970000800680070000000000000000000000087
:1019800000000000000007E01818200440020000DA
:10199000000040022004181807E0000000000000CA
:1019A0000240024001800FF001800240024000002E
:1019B0000080008000800FF8008000800080000020
:1019C0000001000D000E00000000000000000000FB
:1019D0000000008000800080008000800080008087
:1019E0000000000C000C00000000000000000000DF
:1019F00000000006001800600180060018002000AA
:101A0000000007F0080810041004080807F00000A0
:101A10000000080408041FFC00040004000000008B
:101A200000000E0C10141024104411840E0C000041
:101A300000000C1810041104110412880C7000002E
:101A4000000000E00320042408241FFC0024000000
:101A500000001F98108411041104108810700000F9
:101A6000000007F0088811041104188800700000B5
:101A700000001C00100010FC13001C0010000000EF
:101A800000000E3811441084108411440E380000F8
:101A900000000700088C10441044088807F000007C
:101AA000000000000000030C030C00000000000018
:101AB000000000000001010600000000000000001E
:101AC00000000080014002200410080810040000FB
:101AD0000220022002200220022002200220000018
:101AE00000001004080804100220014000800000DB
:101AF00000000E001200100C106C10800F0000008F
:101B000003E00C1813E4142417C4082807D00000BD
:101B10000004003C03C41C40074000E4001C000417
:101B200010041FFC1104110411040E880070000041
:101B300003E00C1810041004100410081C1000001E
:101B400010041FFC100410041004080807F0000023
:101B500010041FFC1104110417C41004081800001D
:101B600010041FFC1104110017C010000800000031
:101B700003E00C181004100410441C78004000000E
:101B800010041FFC10840080008010841FFC1004CF
:101B90000000100410041FFC1004100400000000DA
:101BA00000030001100110011FFE100010000000D2
:101BB00010041FFC110403801464181C100400009E
:101BC00010041FFC1004000400040004000C0000BA
:101BD00010041FFC1F0000FC1F001FFC100400006D
:101BE00010041FFC0C04030000E010181FFC100080
:101BF00007F00808100410041004080807F000009B
:101C000010041FFC10841080108010800F00000052
:101C100007F0081810241024101C080A07F200000E
:101C200010041FFC1104110011C011300E0C00042F
:101C300000000E1C11041084108410441C38000095
:101C40001800100010041FFC100410001800000001
:101C500010001FF810040004000410041FF8100006
:101C600010001E0011E0001C007013801C0010000A
:101C70001FC0103C00E01F0000E0103C1FC000002F
:101C80001004180C163401C001C01634180C1004CE
:101C900010001C00130400FC13041C0010000000C2
:101CA0000804101C1064108413041C041018000095
:101CB0000000000000007FFE4002400240020000E1
:101CC000000030000C0003800060001C00030000D6
:101CD00000004002400240027FFE000000000000C1
:101CE00000000000200040004000400020000000F4
:101CF00000010001000100010001000100010001DC
:101D00000000400040002000000000000000000033
:101D100000000098012401440144014400FC000437
:101D200010001FFC008801040104008800700000FE
:101D30000000007000880104010401040088000014
:101D40000000007000880104010411081FFC000459
:101D5000000000F8014401440144014400C80000AF
:101D60000000010401040FFC11041104110018000B
:101D7000000000D601290129012901C9010600003E
:101D800010041FFC008401000100010400FC000499
:101D900000000104190419FC000400040000000004
:101DA0000000000300010101190119FE00000000FC
:101DB00010041FFC0024004001B4010C01040000C9
:101DC0000000100410041FFC0004000400000000C8
:101DD000010401FC0104010001FC0104010000FCFC
:101DE000010401FC008401000100010400FC000466
:101DF000000000F8010401040104010400F80000DF
:101E0000010101FF00850104010400880070000049
:101E100000000070008801040104010501FF0001B9
:101E20000104010401FC00840104010001800000A0
:101E3000000000CC012401240124012401980000A9
:101E400000000100010007F8010401040000000087
:101E5000010001F8000400040004010801FC000472
:101E6000010001800170000C001001600180010080
:101E700001F0010C003001C00030010C01F0010044
:101E800000000104018C00740170018C0104000049
:101E9000010101810171000E001801600180010043
:101EA00000000184010C013401440184010C000094
:101EB000000000000000000001003EFC4002400263
:101EC0000000000000000000FFFF00000000000014
:101ED0000000400240023EFC010000000000000043
:101EE00000006000800080004000400020002000D2
:101EF000101F0008000000201C0000001413000840
:101F00002C1F00081C0000205408000024130008A7
:101F100000000000000000010203040102030406A7
:0C1F200007080902040608000000000089
:04000005080000ED02
:00000001FF
