:020000040800F2
:100000008808002001010008350F00082D0F0008A6
:10001000310F0008150D0008A71E000800000000A1
:10002000000000000000000000000000291300088C
:10003000190D000800000000291100083D140008F7
:100040001B0100081B0100081B0100081B01000820
:100050001B0100081B0100081B0100081B01000810
:100060001B0100081B0100081B0100081B01000800
:100070001B0100081B0100081B0100081B010008F0
:100080001B0100081B0100081B0100081B010008E0
:100090001B0100081B0100081B0100081B010008D0
:1000A0001B0100081B0100081B0100081B010008C0
:1000B0001B0100081B010008E11600081B010008D5
:1000C0001B0100081B0100081B0100081B010008A0
:1000D0001B010008211C00081B0100081B0100086F
:1000E0001B0100081B0100081B010008DFF80CD0F1
:1000F00000F0FCF800480047211F00088808002095
:100100000648804706480047FEE7FEE7FEE7FEE7B1
:10011000FEE7FEE7FEE7FEE7FEE7FEE74114000824
:10012000ED000008F0B480EA0102D40F4200B2EB07
:10013000410F02D20246084611464A0042D0C30D82
:10014000DDB2C1F3C752AD1A202D35DAC1F3160165
:1001500041F4000204B15242C5F1200602FA06F150
:100160002A411044B3EBD05F23D0C4B1012DA0EBE2
:10017000C35009DCF0BC4FF0004202EAC352DBB2CC
:1001800000F5000000F083B8400000F1807000EB43
:10019000C350A0F1807040EAD170490009E04908DD
:1001A00041EAC071A0EBC35000F50000400800EB2D
:1001B000C350F0BC00F062B86142012202EB410181
:1001C000001BF6E7F0BC704781F00041AAE780F021
:1001D0000040A7E780EA010210B502F000434000AA
:1001E00022D04A001FD0010E01EB1261C0F356006D
:1001F000C2F3560240F4000042F40002A0FB0220C9
:1002000000047F39140400D0401C50EA124001D48D
:100210004000491EC2B20C0604EBD010401C40083E
:10022000802A02D003E0002010BD20F00100002948
:1002300000DA0020184310BDC10F80EAE0700844C6
:10024000CA079623002100F022B800F0004220F0F7
:100250000040C10DC0F3160040F400007F2901DA10
:1002600000207047962903DCC1F19601C84001E0E7
:1002700096398840002AF4D0404270470029A8BF30
:100280007047401C490008BF20F00100704710B4BF
:10029000B0FA80FC00FA0CF050EA010404BF10BC74
:1002A000704749B1CCF1200421FA04F411FA0CF1A1
:1002B00018BF012121430843A3EB0C01CB1D4FEADA
:1002C00000614FEA102042BF002010BC704700EBD5
:1002D000C35010440029A4BF10BC7047401C490003
:1002E00008BF20F0010010BC70470000064C074D0D
:1002F00006E0E06840F0010394E8070098471034F6
:10030000AC42F6D3FFF7F6FEF02B0008102C0008E5
:1003100010B56FF0040001F07DF810BD70B5044613
:100320004FF4FA7094FBF0F0C6B24FF4FA7094FBFD
:10033000F0F100FB114085B205E04FF4FA7000F0D7
:10034000ECFC701EC6B2002EF7D115B1284600F0A5
:10035000E4FC70BD10B5024801F0F9FA10BD0000D0
:100360000004004010B588B004460121042000F0CC
:10037000FDFEC020ADF81C0004208DF81F000320F6
:100380008DF81E0007A91A4800F0EBFC012102209D
:1003900000F0CCFE174801F0C5F904A801F036FCC6
:1003A0000020ADF81000ADF81440ADF81600ADF81F
:1003B000120004A90F4801F0D7FB00231A460321BD
:1003C0000C4801F0A3FA01A801F02CFB0020ADF8C5
:1003D0000C0001A9074801F0CFFA0020054924319B
:1003E00008800121034801F090F908B010BD000019
:1003F00000080140000400400149088070470000E7
:100400002404004001464906084A926942F001026C
:10041000064B9A61064A526822F0E062044B5A6029
:100420001A4652680A435A607047000000100240A2
:100430000000014010B50648006838B90A20FFF7EF
:100440006DFF0348006808B9012010BD0020FCE7DB
:100450000001214208B50121042000F087FE21207F
:10046000ADF8000048208DF803006946014800F00F
:1004700078FC08BD0008014008B50121102000F0FB
:1004800075FE4FF40050ADF8000010208DF8030009
:1004900003208DF802006946044800F062FC4FF426
:1004A0000051024800F03BFD08BD00000010014073
:1004B00010B588B004460121084600F037FE01213E
:1004C000042000F053FE0220ADF81C0018208DF827
:1004D0001F0003208DF81E0007A9214800F041FCF1
:1004E0004FF4C050ADF81C0010208DF81F00032001
:1004F0008DF81E0007A91A4800F033FC04B9012446
:10050000282C00DD282440F2CF70ADF814004820DC
:1005100090FBF4F0401E80B2ADF810000020ADF862
:100520001600ADF8120004A94FF0804001F01CFB4A
:100530006020ADF800000120ADF802000020ADF809
:10054000080069464FF0804001F07EFA0821C80695
:1005500001F0CCFA0121880701F0D7F808B010BDEE
:100560000008014070B50546002D0BDD4FF4006119
:10057000174800F0D2FC4FF48051154800F0CFFC32
:10058000ACB219E0002D0CDA4FF48051104800F0A5
:10059000C4FC4FF400610E4800F0C1FC684284B214
:1005A0000AE04FF480510A4800F0B7FC4FF40061B4
:1005B000074800F0B2FC0024B4F5FA6F01DD4FF4F7
:1005C000FA6421464FF0804001F09DFA70BD0000B2
:1005D0000008014070B500240CE0002506E0002072
:1005E000074901EBC5010855681CC5B2802DF6DB33
:1005F000601CC4B2082CF0DB00F038FA70BD0000BB
:10060000880000202DE9F04104460D461646984624
:1006100000277B2C15DA3A2D13DA0FE0F25D434602
:100620002946204600F010F8A01DC4B27A2C03DD44
:10063000002405F10C00C5B2781CC7B2F05D00289B
:10064000ECD1BDE8F08100002DE9F05F80460C465A
:1006500015461E46A346A5F12000C5B2002735E089
:1006600005EB45001B4901EB800010F807904FF0A7
:10067000000A25E009F0800048B10EB9012000E031
:10068000002002462146404600F098FC04E0324635
:100690002146404600F092FC4FEA49604FEA10695B
:1006A000601CC4B2A4EB0B000C2805D15C4608F119
:1006B000010000F0FF0806E00AF1010000F0FF0A67
:1006C000BAF1080FD6DB00BF781CC7B20C2FC7DB0E
:1006D000BDE8F09F8C2100082DE9F04105460E464B
:1006E00014461F460A2C07DA04F13000C2B23B461A
:1006F00031462846FFF7A8FFBDE8F0812DE9FE4FFF
:1007000080468A4691461D46DDE90C7B002D76DD4C
:10071000E8190A2873DAB9F1000F02DAC9F1000604
:1007200000E04E460A20B6FBF0F100FB11608DF8A8
:1007300001006420B6FBF0F100FB11600A21B0FB60
:10074000F1F08DF802004FF47A70B6FBF0F100FB87
:1007500011606421B0FBF1F0C0B28DF8030042F2E9
:100760001070B6FBF0F100FB11604FF47A71B0FB32
:10077000F1F0C0B28DF804005948B6FBF0F100FB6F
:10078000116042F21071B0FBF1F0C0B28DF80500BB
:100790005448B6FBF0F100FB11605149B0FBF1F099
:1007A000C0B28DF806005048B6FBF0F100FB1160B6
:1007B0004C49B0FBF1F0C0B28DF807004B48B6FBD6
:1007C000F0F100FB11604849B0FBF1F0C0B28DF8C8
:1007D00008004748B6FBF0F100FB11604349B0FB4D
:1007E000F1F0C0B28DF80900B9F1000F41DA5B46B3
:1007F0002D2251464046FFF727FF002412E037E044
:10080000E919091B491E1DF8012004EB440308F1F6
:10081000060101EB4301C8B25B465146FFF75CFF9E
:10082000601CC4B2681EA042EADC002F56D005EB63
:10083000450108EB4101C8B25B462E225146FFF745
:1008400003FF002412E005EB450108EB4101891D7F
:1008500004EB440301EB4301C8B2391B1DF801202E
:100860005B465146FFF738FF601CC4B2BC42EADB6E
:1008700034E000240EE0E919091B1DF8012004EB07
:10088000440108EB4101C8B25B465146FFF724FF23
:10089000601CC4B2AC42EEDB07B305EB450108EBCC
:1008A0004101C8B25B462E225146FFF7CDFE00241F
:1008B00012E005EB450108EB4101891D04EB4403FF
:1008C00001EB4301C8B2391B1DF801205B465146BC
:1008D000FFF702FF601CC4B2BC42EADBBDE8FE8F3A
:1008E000A086010040420F008096980000E1F505C7
:1008F00000CA9A3B00B587B001210D2000F036FCFC
:100900000121084600F0B8FA2820ADF804000320C1
:100910008DF8060018208DF8070001A9504800F056
:1009200020FA1020ADF804008DF8070001A94C480A
:1009300000F017FA4FF40040ADF8040010208DF8D5
:10094000070001A9474800F00CFA0121080300F054
:100950000DFC0020ADF808004FF48270ADF80A00DD
:100960000020ADF80C000220ADF80E000120ADF81B
:1009700010004002ADF812000020ADF81400ADF8F0
:1009800016000720ADF8180002A9374800F0AEFCA9
:100990000121354800F090FCFF2000F071FC10218F
:1009A0002F4800F0BCFA6420FFF7B8FC10212C4857
:1009B00000F0B3FAC820FFF7B1FC1021284800F07E
:1009C000AEFAAE2000F02EFBD52000F02BFB50201D
:1009D00000F028FBA82000F025FB3F2000F022FBC0
:1009E000D32000F01FFB002000F01CFB402000F093
:1009F00019FB8D2000F016FB142000F013FB2020C3
:100A000000F010FB022000F00DFBA12000F00AFB1B
:100A1000C02000F007FBDA2000F004FB122000F0F9
:100A200001FB812000F0FEFAEF2000F0FBFAD92054
:100A300000F0F8FAF12000F0F5FADB2000F0F2FA0D
:100A4000302000F0EFFAA42000F0ECFAA62000F02D
:100A5000E9FAAF2000F0E6FAFFF7BCFD07B000BDF1
:100A6000000C0140000801400030014070B5002436
:100A700018E004F1B001C8B200F0D4FA002000F090
:100A8000D1FA102000F0CEFA002507E0074901EB6B
:100A9000C501085D00F0D8FA681CC5B2802DF5DBF1
:100AA000601CC4B2082CE4DB70BD0000880000208C
:100AB0000448007820B100200249087001207047E6
:100AC0000020FCE71F00002010B504460021044868
:100AD00001F01BF82146024800F017FE10BD00008F
:100AE000000800401FB504460121042000F01EFB51
:100AF000601E80B2ADF808004720ADF80400002069
:100B0000ADF80600ADF80A0001A90E4801F02CF876
:100B1000012211460B4800F08EFF1E208DF80000C8
:100B200000208DF8010003208DF8020001208DF8CF
:100B30000300684600F000FA0121024800F0E5FDDC
:100B40001FBD00000008004010B503460B480078A8
:100B500090B10B488078001FC2B2002105E0C81C8C
:100B6000074C205C5854481CC1B29142F7DB00206E
:100B7000024C2070104610BD0020FCE71C00002035
:100B80003800002010B586B004460121042000F092
:100B9000EDFA0121880300F0E9FA4FF40070ADF896
:100BA000140018208DF8170003208DF8160005A9F1
:100BB0001C4800F0D6F84FF48060ADF81400042013
:100BC0008DF8170005A9174800F0CBF80194002014
:100BD000ADF80800ADF80A00ADF80C00ADF8100053
:100BE0000C20ADF80E0001A90F4801F0E7F8252010
:100BF0008DF8000002208DF8010001208DF8020020
:100C00008DF80300684600F097F9012240F2255163
:100C1000054801F0AEF80121034801F067F806B07D
:100C200010BD000000080140003801402DE9F047E8
:100C300007460D4690464FF00009202D37DCAA20CC
:100C40001C49087055204870681D8870084680F857
:100C50000380002405E0395D201D164A1154601CF4
:100C6000C4B2AC42F7DB281DC6B2002406E011482E
:100C7000005D484400F0FF09601CC4B2B442F6DBDA
:100C80000C4800F80490681DC6B200240DE0094825
:100C9000015D094801F003F900BF4021064801F059
:100CA00031F80128F9D1601CC4B2B442EFDBBDE8D1
:100CB000F087000060000020003801400178012921
:100CC00007D18178427841EA022109B20D4A1180A8
:100CD00017E00178022914D18178427841EA022193
:100CE00009B2094A11800179C27841EA022109B2A8
:100CF000064A11808179427941EA022109B2044A07
:100D00001180704704000020080000200A00002025
:100D10000C00002000BFFEE77047014642F2283277
:100D20004A434FF0E0235A6100229A611A46126941
:100D300042F001021A6100BF4FF0E022106900F09A
:100D400001021AB100F48032002AF5D04FF0E022FF
:100D5000126922F001024FF0E0231A6100229A6129
:100D600070472DE9F04102460025002600200023AF
:100D70000024002791F803C00CF00F0591F803C080
:100D80000CF0100CBCF1000F03D091F802C04CEA3B
:100D9000050591F800C0BCF1000F31D014680020A7
:100DA0002BE04FF0010C0CFA00F3B1F800C00CEA94
:100DB00003069E4220D183004FF00F0C0CFA03F77C
:100DC000BC4305FA03FC4CEA040491F803C0BCF1EF
:100DD000280F06D14FF0010C0CFA00FCC2F814C029
:100DE0000AE091F803C0BCF1480F05D14FF0010CA7
:100DF0000CFA00FCC2F810C0401C0828D1D31460C3
:100E0000B1F800C0BCF1FF0F34DD546800202EE0C3
:100E100000F1080C4FF0010808FA0CF3B1F800C01B
:100E20000CEA03069E4221D183004FF00F0C0CFA0E
:100E300003F7BC4305FA03FC4CEA040491F803C031
:100E4000BCF1280F05D100F1080C08FA0CF8C2F823
:100E5000148091F803C0BCF1480F07D100F1080CD1
:100E60004FF0010808FA0CF8C2F81080401C08285E
:100E7000CED35460BDE8F081F0B50A4600230024CB
:100E80000021002500F00046B6F1004F02D11D4EB2
:100E9000F16901E01B4E7168C0F3034583B200F4B1
:100EA0004016B6F5401F08D121F07061154E7668E6
:100EB00026F07066134F7E6012E000F48016B6F5DF
:100EC000801F06D1032606FA05F4A14341F07061A4
:100ED00006E0460D360103FA06F6B14341F07061B3
:100EE00022B1460D360103FA06F6314300F0004602
:100EF000B6F1004F02D1034EF16101E0014E716085
:100F0000F0BD0000000001400246002093680B4045
:100F10000BB1012000E00020704741617047016182
:100F200070470AB1016100E04161704700BFFEE710
:100F300000BFFEE77047000070B5002100230F22BC
:100F4000C47804B3154C246804F4E064C4F5E06488
:100F5000210AC1F10403CA40447804FA03F18478F9
:100F60001440214309010E4C0678A155047804F081
:100F70001F050124AC4005786D11AD0005F1E02599
:100F8000C5F8004109E0047804F01F050124AC40D5
:100F9000044D0678761145F8264070BD0CED00E052
:100FA00000E400E080E100E002490143024A1160F0
:100FB000704700000000FA050CED00E0F0B51446A3
:100FC00000267F2801DC3F2900DDF0BD0B46CF174E
:100FD00001EB5777FF10C7F10707FAB2CF1701EB04
:100FE0005777FF10A1EBC707FDB2C5F10707012333
:100FF000BB40DEB24CB10A4B03EBC0039B5C3343F6
:10100000074F07EBC007BB5408E0054B03EBC003D9
:101010009B5CB343024F07EBC007BB5400BFD4E750
:101020008800002010B504464FF400410548FFF742
:1010300074FF204600F024F94FF400410148FFF707
:101040006EFF10BD0008014010B50446204600F0B8
:1010500017F910BD2DE9FC5F04460D46601B2A49B7
:1010600008602A4800680968084428490860284937
:10107000B1F90010254A126801FB02F0FFF7DCF815
:1010800082462449FFF7A6F880461F490968224A8C
:101090001268891A214AB2F9002001FB02F0FFF719
:1010A000CBF81C490090FFF795F882461C49B1F92E
:1010B0000010154A126801FB02F0FFF7BDF8154950
:1010C0000090FFF787F883465146FFF72BF88146DB
:1010D0004146FFF727F807461248B0F90000FFF72E
:1010E000ABF839460190FFF71DF80646FFF7ADF85B
:1010F00000B20C49088004480068074908600948A4
:10110000B0F90000BDE8FC9F10000020180000208E
:101110000A0000200AD7233C140000200C00002005
:10112000080000200E0000207047000029B1064A88
:10113000D2690243044BDA6104E0034AD269824374
:10114000014BDA61704700000010024029B1064AE5
:1011500012690243044B1A6104E0034A1269824394
:10116000014B1A61704700000010024029B1064A85
:1011700092690243044B9A6104E0034A92698243F4
:10118000014B9A61704700000010024029B1064AE5
:10119000D2680243044BDA6004E0034AD268824317
:1011A000014BDA60704700000010024030B50021AA
:1011B0000022002400232D4D6D6805F00C0121B1A3
:1011C000042905D0082923D105E0294D056022E036
:1011D000274D05601FE0254D6D6805F47012234D05
:1011E0006D6805F48034022505EB92421CB9214D4F
:1011F000554305600BE01D4D6D6805F400351DB1CC
:101200001C4D5543056002E0194D5543056002E051
:10121000174D056000BF00BF144D6D6805F0F0016B
:101220000909154D6B5C0568DD4045600F4D6D6823
:1012300005F4E061090A104D6B5C4568DD4085608E
:101240000A4D6D6805F46051C90A0B4D6B5C456829
:10125000DD40C560054D6D6805F44041890B074DC3
:101260006B5CC568B5FBF3F5056130BD001002404D
:1012700000127A0000093D0020000020300000200C
:1012800010B5044600BF02210A4800F021F80028EA
:10129000F9D02146074800F027F800BF0121054892
:1012A00000F016F80028F9D0024800F01AF8C0B291
:1012B00010BD00000030014021B1028842F0400220
:1012C000028004E002884FF6BF731A400280704724
:1012D0000246002013890B400BB1012000E00020E2
:1012E00070470146888970478181704710B5002298
:1012F000028802F441520B884C8823438C88234394
:10130000CC8823430C8923434C8923438C89234372
:10131000CC8923431A430280838B4FF2FF7423400E
:1013200083830B8A038210BD704710B500F002F86A
:1013300010BD00000CB500200190009033480068FB
:1013400040F480303149086000BF3048006800F444
:10135000003000900198401C0190009818B9019845
:10136000B0F5A06FF1D12948006800F4003010B149
:101370000120009001E0002000900098012843D156
:101380002348006840F010002149086008460068C2
:1013900020F0030008600846006840F00200086082
:1013A0001A4840681949486008464068486008463D
:1013B000406840F4806048600846406820F47C1033
:1013C00048600846406840F4E810486008460068F5
:1013D00040F08070086000BF0C48006800F00070AA
:1013E0000028F9D00948406820F003000749486008
:1013F0000846406840F00200486000BF034840686B
:1014000000F00C000828F9D10CBD000000100240CB
:1014100000200240042808D14FF0E021096941F082
:1014200004014FF0E022116107E04FF0E02109696B
:1014300021F004014FF0E022116170477047000075
:1014400010B51348006840F00100114908600846D3
:101450004068104908400E494860084600680E4937
:1014600008400B4908600846006820F480200860A6
:101470000846406820F4FE0048604FF41F00886072
:10148000FFF753FF4FF000600449086010BD0000F3
:10149000001002400000FFF8FFFFF6FE08ED00E03C
:1014A000F0B50C46154600220021068C4FF6FE775B
:1014B0003E400684028B018C4FF60C7632407E1C37
:1014C00006EA03162E433243104EB0420ED0104EA1
:1014D000B0420BD0B0F1804F08D00E4EB04205D0D4
:1014E0000D4EB04202D00D4EB04206D14FF6FD7601
:1014F000314044F00106314305E04FF6F5763140C6
:1015000044F00106314302830184F0BD002C014008
:10151000003401400004004000080040000C00407E
:10152000F0B50C461546002200210026078C4FF628
:10153000EF7C07EA0C070784028B018C4FF6FF77DC
:1015400007EA041640F6FF473A404FF6FF7707EAEE
:1015500003373A434FF6FF7707EA05273A43114F1F
:10156000B8420ED0104FB8420BD0B0F1804F08D027
:101570000E4FB84205D00E4FB84202D00D4FB842C0
:1015800006D14FF6DF77394046F01007394305E0C2
:101590004FF65F77394044F01007394302830184E6
:1015A000F0BD0000002C0140003401400004004068
:1015B00000080040000C0040F0B50C461546002223
:1015C00000210026078C4FF6FF6C07EA0C07078402
:1015D000828B018C4FF6FF7707EA04264FF60C77D3
:1015E0003A404FF6FF7707EA03172F433A43114F6C
:1015F000B8420ED0104FB8420BD0B0F1804F08D097
:101600000E4FB84205D00E4FB84202D00D4FB8422F
:1016100006D14FF6FF57394046F48077394305E04D
:101620004FF2FF57394044F4807739438283018475
:10163000F0BD0000002C01400034014000040040D7
:1016400000080040000C0040F0B50C461546002292
:1016500000210026078C4EF6FF7C07EA0C07078462
:10166000828B018C4FF6FF7707EA043640F6FF477E
:101670003A404FF6FF7707EA05273A434FF6FF77E0
:1016800007EA03373A43114FB8420ED0104FB84221
:101690000BD0B0F1804F08D00E4FB84205D00E4F9E
:1016A000B84202D00D4FB84206D14DF6FF7739400F
:1016B00046F48057394305E047F6FF57394044F474
:1016C0008057394382830184F0BD0000002C014023
:1016D000003401400004004000080040000C0040BD
:1016E00010B50121054800F035F930B10120044959
:1016F00008700121014800F005F810BD0008004005
:101700001F000020CA430282704721B1028842F0C4
:101710000102028004E002884FF6FE731A40028044
:101720007047000010B504466848844208D1012182
:10173000C014FFF72BFD0021E014FFF727FDC4E0E4
:10174000B4F1804F08D101210846FFF7FFFC0021CA
:101750000120FFF7FBFCB8E05D48844208D101217D
:101760000220FFF7F3FC00210220FFF7EFFCACE0C2
:101770005848844208D101210420FFF7E7FC0021EA
:101780000420FFF7E3FCA0E05348844208D1012184
:101790000820FFF7DBFC00210820FFF7D7FC94E0CE
:1017A0004E48844208D101211020FFF7CFFC0021D0
:1017B0001020FFF7CBFC88E04948844208D1012182
:1017C0002020FFF7C3FC00212020FFF7BFFC7CE0B6
:1017D0004448844208D101214014FFF7D7FC00217E
:1017E0006014FFF7D3FC70E03F48844209D1012127
:1017F000C804FFF7CBFC00214FF40020FFF7C6FC24
:1018000063E03A48844209D101210805FFF7BEFC94
:1018100000214FF48010FFF7B9FC56E034488442B1
:1018200009D101214805FFF7B1FC00214FF4001058
:10183000FFF7ACFC49E02F48844208D10121402049
:10184000FFF784FC00214020FFF780FC3DE02A48A0
:10185000844208D101218020FFF778FC00218020FC
:10186000FFF774FC31E02548844208D1012180153E
:10187000FFF76CFC0021A015FFF768FC25E020486D
:10188000844209D101210804FFF780FC00214FF4B4
:101890008030FFF77BFC18E01A48844209D101210F
:1018A0004804FFF773FC00214FF40030FFF76EFC93
:1018B0000BE01548844208D101218804FFF766FC3B
:1018C00000214FF48020FFF761FC10BD002C014087
:1018D0000004004000080040000C004000100040E0
:1018E0000014004000340140004C01400050014011
:1018F0000054014000180040001C0040002000403F
:10190000004001400044014000480140F0B50C4651
:1019100015461E460021002200230189028B038CFC
:101920004FF6F877394021434FF6FC473A4040F2F2
:1019300001173A434FF6DD773B404FF6FF7707EA52
:1019400006172F433B43018102830384F0BD014608
:10195000888C704730B50246002000230024158A89
:1019600005EA0103958905EA010413B10CB10120D0
:1019700000E0002030BD000070B505460C4624484C
:1019800085420ED0234885420BD0B5F1804F08D058
:101990002148854205D02148854202D02048854211
:1019A00000D100E000BF208850B92389A288618857
:1019B0002846FFF775FDE188284600F0A8F825E0E5
:1019C000208804280AD12389A28861882846FFF745
:1019D000A7FDE188284600F0A3F817E02088082832
:1019E0000AD12389A28861882846FFF7E5FDE188AE
:1019F000284600F0A2F809E02389A28861882846D9
:101A0000FFF722FEE188284600F0A0F870BD000034
:101A1000002C014000340140000400400008004058
:101A2000000C0040002101804180012181800021C3
:101A3000C180018170471AB183890B43838102E021
:101A400083898B438381704770B500240022002373
:101A5000058C4FF6EF7635400584028C8388048B25
:101A600048F6FF752C404FF6FF452C400D884FF689
:101A7000FF7606EA05252C434FF6DF752A400D89CF
:101A800006EA05152A434D8806EA05152A43154D31
:101A9000A84202D0144DA8421DD14FF67F752A40AE
:101AA0004D894FF6FF7606EA05152A434FF6BF75B6
:101AB0002A408D8806EA05152A434FF6FF352B404C
:101AC0004FF2FF752B408D8906EA85052B43CD89A2
:101AD00006EA85052B4383800483CD88058702842D
:101AE00070BD0000002C0140003401400A46002176
:101AF000018B4FF2FF7319404FF6FF7303EA022385
:101B00001943018370470187704781847047028BB6
:101B10004FF6F3731A400283028B0A430283704725
:101B2000028B4FF2FF331A400283028B4FF6FF7392
:101B300003EA01231A4302837047828B4FF6F37343
:101B40001A408283828B0A4382837047828B4FF2D2
:101B5000FF331A408283828B4FF6FF7303EA01231F
:101B60001A43828370470000002202881D4B98426E
:101B70000ED01D4B98420BD0B0F1804F08D01B4BBC
:101B8000984205D01A4B984202D01A4B984204D181
:101B90004FF68F731A404B881A43174B984207D061
:101BA000164B984204D04FF6FF431A40CB881A4395
:101BB00002808B8883850B8803850A4B98420BD063
:101BC000094B984208D00E4B984205D00D4B9842D5
:101BD00002D00D4B984201D10B7A038601238382F8
:101BE00070470000002C0140003401400004004018
:101BF00000080040000C00400010004000140040AD
:101C00000040014000440140004801404FF6FF7190
:101C1000818000210180C1804180017270470000F5
:101C200010B540F225512C4800F079F8002851D029
:101C3000294800F02FF9C4B228480078032823DA95
:101C40002648007838B9AA2C3ED1254804700120D6
:101C50002249087038E02148007801280BD1552C22
:101C600005D11F48447002201C4908702CE0002058
:101C70001A49087028E01A48847003201749087030
:101C8000601E184908701FE015488078401E1349EF
:101C9000097888420EDD12481049097844540F48EB
:101CA0000078401C0D4908700E48007820440D490A
:101CB000087009E00B480078844205D101200A49E8
:101CC0000870002005490870012240F225510248A1
:101CD00000F04FF810BD0000003801401D0000204A
:101CE000380000201E0000201C00002021B1828945
:101CF00042F40052828104E082894DF6FF731A405B
:101D00008281704702460020B1F5007F00D100BFFC
:101D100013880B400BB1012000E00020704770B524
:101D20000246002400230025002040F66A16B14236
:101D300000D100BFC1F3421501F01F03012606FACE
:101D400003F3012D02D19689334006E0022D02D122
:101D5000168A334001E0968A33400C12012606FAB7
:101D600004F41688344013B10CB1012000E00020C7
:101D700070BDF0B50346002400260025002040F683
:101D80006A17B94200D100BF1846C1F3421401F0EE
:101D90001F06012707FA06F5012C01D10C3004E0DB
:101DA000022C01D1103000E014301AB107682F4323
:101DB000076002E00768AF430760F0BD2DE9F04718
:101DC00086B005460E460024A24600BFA146002765
:101DD000B08900B100BF2F462C8A4CF6FF7004403A
:101DE000F08804432C82AC894EF6F3100440B0888E
:101DF00031890843718908430443AC81AC8A4FF6AA
:101E0000FF400440B0890443AC8201A8FFF7CEF93B
:101E10001F48874202D1DDF810A001E0DDF80CA0D8
:101E2000A88900F4004040B10AEBCA0000EB0A1098
:101E300031684900B0FBF1F807E00AEBCA0000EB9B
:101E40000A1031688900B0FBF1F86420B8FBF0F0AB
:101E500004012009642101FB1089A88900F40040D5
:101E600040B1322000EBC900B0FBF1F000F00700F8
:101E7000044308E0322000EB09106421B0FBF1F0CC
:101E800000F00F0004432C8106B0BDE8F08700008D
:101E90000038014001468888C0F308007047C1F34C
:101EA00008028280704700BFFEE70000014A024935
:101EB00000F013B8FD1E00083400002002E008C83E
:101EC000121F08C1002AFAD170477047002001E0B4
:101ED00001C1121F002AFBD170472DE9F0411646BF
:101EE0000F460446002503E03946B047641C6D1CCC
:101EF00020780028F8D12846BDE8F08170B5044666
:101F00000D46E1B20548FFF7CAFF00BF4021034874
:101F1000FFF7F8FE0028F9D0204670BD00380140D8
:101F20008AB001244FF4FA70FEF7F8F94FF4A0607C
:101F3000FFF73AF84FF4E130FEF724FE7AA0FFF7FE
:101F4000B5FF0220FEF75EFA0120FEF75BFAFEF70E
:101F5000DFF9FEF791FAFEF77DFAFEF7CBFC0023DE
:101F600073A219461846FEF74DFB002375A20D21FA
:101F70001846FEF747FB002373A20D214020FEF711
:101F800041FB002371A21A211846FEF73BFB0023F8
:101F90006FA227211846FEF735FB002370A23421DB
:101FA0001846FEF72FFBFEF761FD0A20FEF780FAC8
:101FB0004EF66020FEF7D6F947F23050FEF71CFAD5
:101FC00042F21070FEF78EFD0120FEF77DFDA9E0C4
:101FD000FEF76EFD0028FAD0E11704EB917189102D
:101FE000A4EB8101002949D1FEF7B4F9A0F5EA403C
:101FF000303800B25E49088047F23050FEF7FCF9F5
:102000005B48B0F900105B48B0F90000FFF722F818
:102010005949088008460088404200B2FEF7A2FAFB
:1020200002A8FEF791FD10B102A8FEF747FE504846
:102030000088000A8DF808004D4800788DF80900E6
:102040004C480088000A8DF80A004A4800788DF84C
:102050000B000122042102A8FEF7E8FDFEF7EAF9D1
:1020600001280BD10020434908804FF49670434962
:10207000088000204249088042490880142094FBCF
:10208000F0F100FB1140012846D10020009005230B
:1020900001903A48B0F900200D211220FEF72EFBE6
:1020A00000200090052301903548B0F900200D2153
:1020B0005220FEF723FB00200090052301903148B9
:1020C000B0F900201A211220FEF718FB0020009022
:1020D000052301902748B0F9002027214820FEF76A
:1020E0000DFB00200090052301902148B0F900204D
:1020F00034214820FEF702FBFEF7B8FC4FF40051F4
:102100002148FEF701FFC0F10100C5B22A464FF495
:1021100000511D48FEF705FFC82C02D0601CC4B258
:1021200000E0012454E7000020200D0A0000000018
:10213000202050494420535045454420434F4E549D
:10214000524F4C004B503A004B493A004B443A0036
:1021500053504420544152474554203A0000000057
:102160005350442043555252454E543A000000000B
:1021700002000020040000200600002008000020CB
:102180000A0000200C0000200010014000000000A8
:102190000000000000000000000000003F400000C0
:1021A000000000000000300040003000400000004F
:1021B00009000BC03D000BC03D00090018C02440C1
:1021C0007FE0224031800000180024C01B000D80F9
:1021D0003240018003801C4027401C8007400040A3
:1021E000100060000000000000000000000000007F
:1021F00000001F80204040200000402020401F8021
:1022000000000000090006001F8006000900000011
:10221000040004003F80040004000000001000607F
:10222000000000000000000004000400040004009E
:10223000040000000000004000000000000000005A
:10224000002001C006003800400000001F80204030
:10225000204020401F800000000010403FC0004090
:102260000000000018C02140224024401840000017
:1022700010802040244024401B80000002000D00FC
:1022800011003FC0014000003C8024402440244015
:10229000238000001F80244024403440038000003D
:1022A0003000200027C03800200000001B802440A0
:1022B000244024401B8000001C0022C022402240F9
:1022C0001F80000000000000084000000000000027
:1022D0000000000004600000000000000000040096
:1022E0000A0011002080404009000900090009008F
:1022F0000900000000004040208011000A00040096
:102300001800200023402400180000001F802040F7
:10231000274029401F400000004007C039000F003F
:1023200001C0004020403FC0244024401B800000EA
:102330001F802040204020403080000020403FC0CF
:10234000204020401F80000020403FC024402E40FD
:1023500030C0000020403FC024402E00300000006C
:102360000F001080204022403380020020403FC0F8
:10237000040004003FC02040204020403FC02040D7
:10238000204000000060202020203FC020002000CE
:1023900020403FC024400B0030C0204020403FC0C0
:1023A00020400040004000C03FC03C0003C03C0053
:1023B0003FC0000020403FC00C4023003FC0200031
:1023C0001F802040204020401F80000020403FC050
:1023D00024402400180000001F802140214020E0FC
:1023E0001FA0000020403FC02440260019C000402C
:1023F00018C024402440224031800000300020409A
:102400003FC020403000000020003F8000400040DE
:102410003F80200020003E0001C00700380020005F
:10242000380007C03C0007C038000000204039C019
:10243000060039C0204000002000384007C0384066
:1024400020000000304021C02640384020C000005D
:10245000000000007FE040204020000000007000ED
:102460000C000380004000000000402040207FE07E
:1024700000000000000020004000200000000000DC
:1024800000100010001000100010001000000000EC
:1024900040000000000000000000028005400540F0
:1024A00003C0004020003FC00440044003800000FF
:1024B0000000038004400440064000000000038048
:1024C000044024403FC00040000003800540054018
:1024D00003400000000004401FC0244024402000AE
:1024E000000002E0055005500650042020403FC087
:1024F0000440040003C000400000044027C0004026
:102500000000000000100010041027E00000000090
:1025100020403FC00140070004C00440204020404C
:102520003FC000400040000007C0040007C0040096
:1025300003C00000044007C00440040003C0004082
:10254000000003800440044003800000041007F0F2
:102550000450044003800000000003800440045045
:1025600007F00010044007C002400400040000000F
:10257000000006400540054004C0000000000400C3
:102580001F80044000400000040007800040044019
:1025900007C000400400070004C0018006000400DA
:1025A000060001C0070001C006000000044006C08C
:1025B000010006C0044000000410071004E0018080
:1025C000060004000000044005C00640044000006E
:1025D0000000000004007BE040200000000000003C
:1025E0000000FFF000000000000040207BE004003D
:1025F000000000004000800040002000200040005B
:1026000000000000000000000000000000000000CA
:102610000000000000001FCC000C000000000000C3
:10262000000008003000600008003000600000007A
:10263000022003FC1E20022003FC1E2002200000BA
:1026400000000E1811043FFF10840C7800000000F9
:102650000F0010840F3800C007781884007800003D
:1026600000780F8410C411240E9800E40084000840
:10267000080068007000000000000000000000007A
:1026800000000000000007E01818200440020000CD
:10269000000040022004181807E0000000000000BD
:1026A0000240024001800FF0018002400240000021
:1026B0000080008000800FF8008000800080000013
:1026C0000001000D000E00000000000000000000EE
:1026D000000000800080008000800080008000807A
:1026E0000000000C000C00000000000000000000D2
:1026F000000000060018006001800600180020009D
:10270000000007F0080810041004080807F0000093
:102710000000080408041FFC00040004000000007E
:1027200000000E0C10141024104411840E0C000034
:1027300000000C1810041104110412880C70000021
:10274000000000E00320042408241FFC00240000F3
:1027500000001F98108411041104108810700000EC
:10276000000007F0088811041104188800700000A8
:1027700000001C00100010FC13001C0010000000E2
:1027800000000E3811441084108411440E380000EB
:1027900000000700088C10441044088807F000006F
:1027A000000000000000030C030C0000000000000B
:1027B0000000000000010106000000000000000011
:1027C00000000080014002200410080810040000EE
:1027D000022002200220022002200220022000000B
:1027E00000001004080804100220014000800000CE
:1027F00000000E001200100C106C10800F00000082
:1028000003E00C1813E4142417C4082807D00000B0
:102810000004003C03C41C40074000E4001C00040A
:1028200010041FFC1104110411040E880070000034
:1028300003E00C1810041004100410081C10000011
:1028400010041FFC100410041004080807F0000016
:1028500010041FFC1104110417C410040818000010
:1028600010041FFC1104110017C010000800000024
:1028700003E00C181004100410441C780040000001
:1028800010041FFC10840080008010841FFC1004C2
:102890000000100410041FFC1004100400000000CD
:1028A00000030001100110011FFE100010000000C5
:1028B00010041FFC110403801464181C1004000091
:1028C00010041FFC1004000400040004000C0000AD
:1028D00010041FFC1F0000FC1F001FFC1004000060
:1028E00010041FFC0C04030000E010181FFC100073
:1028F00007F00808100410041004080807F000008E
:1029000010041FFC10841080108010800F00000045
:1029100007F0081810241024101C080A07F2000001
:1029200010041FFC1104110011C011300E0C000422
:1029300000000E1C11041084108410441C38000088
:102940001800100010041FFC1004100018000000F4
:1029500010001FF810040004000410041FF81000F9
:1029600010001E0011E0001C007013801C001000FD
:102970001FC0103C00E01F0000E0103C1FC0000022
:102980001004180C163401C001C01634180C1004C1
:1029900010001C00130400FC13041C0010000000B5
:1029A0000804101C1064108413041C041018000088
:1029B0000000000000007FFE4002400240020000D4
:1029C000000030000C0003800060001C00030000C9
:1029D00000004002400240027FFE000000000000B4
:1029E00000000000200040004000400020000000E7
:1029F00000010001000100010001000100010001CF
:102A00000000400040002000000000000000000026
:102A100000000098012401440144014400FC00042A
:102A200010001FFC008801040104008800700000F1
:102A30000000007000880104010401040088000007
:102A40000000007000880104010411081FFC00044C
:102A5000000000F8014401440144014400C80000A2
:102A60000000010401040FFC1104110411001800FE
:102A7000000000D601290129012901C90106000031
:102A800010041FFC008401000100010400FC00048C
:102A900000000104190419FC0004000400000000F7
:102AA0000000000300010101190119FE00000000EF
:102AB00010041FFC0024004001B4010C01040000BC
:102AC0000000100410041FFC0004000400000000BB
:102AD000010401FC0104010001FC0104010000FCEF
:102AE000010401FC008401000100010400FC000459
:102AF000000000F8010401040104010400F80000D2
:102B0000010101FF0085010401040088007000003C
:102B100000000070008801040104010501FF0001AC
:102B20000104010401FC0084010401000180000093
:102B3000000000CC0124012401240124019800009C
:102B400000000100010007F801040104000000007A
:102B5000010001F8000400040004010801FC000465
:102B6000010001800170000C001001600180010073
:102B700001F0010C003001C00030010C01F0010037
:102B800000000104018C00740170018C010400003C
:102B9000010101810171000E001801600180010036
:102BA00000000184010C013401440184010C000087
:102BB000000000000000000001003EFC4002400256
:102BC0000000000000000000FFFF00000000000007
:102BD0000000400240023EFC010000000000000036
:102BE00000006000800080004000400020002000C5
:102BF000102C00080000002038000000BC1E000857
:102C0000482C00083800002050080000CC1E0008A6
:102C1000000000000A0000002C010000000000007D
:102C200000000000000000000000000000000000A4
:102C30000000000001020304010203040607080962
:082C4000020406080000000078
:04000005080000ED02
:00000001FF
